:1000000012C062C12BC02AC029C028C027C026C088
:100010008BC0ECC023C022C021C020C01FC01EC0A6
:100020001DC01CC01BC011241FBECFE5D4E0DEBF25
:10003000CDBF10E0A0E6B0E0EAE3F7E002C0059033
:100040000D92A837B107D9F710E0A8E7B0E001C0DA
:100050001D92A838B107E1F75DD26EC3D1CF809170
:100060006300843019F480E090E00895809163008B
:10007000882319F481E090E0089580916300813035
:1000800019F484E090E0089508958091640084302C
:1000900049F480917C0090917D00A0917E00B09108
:1000A0007F0019C080916400882349F48091780012
:1000B00090917900A0917A00B0917B000CC0809162
:1000C0006400813081F48091800090918100A09142
:1000D0008200B09183008093840090938500A09368
:1000E0008600B09387008091630021E030E0A90191
:1000F00002C0440F551F8A95E2F7942F909585B35F
:10010000892385BB809164008093630080916300A4
:1001100002C0220F331F8A95E2F785B3822B85BB7D
:100120009EDF8093640008951F920F920FB60F9286
:1001300011242F933F934F935F936F937F938F93EC
:100140009F93AF93BF93EF93FF93809165008823B4
:1001500011F01092650080916000882319F01092D0
:10016000600093DF1EBCFF91EF91BF91AF919F9113
:100170008F917F916F915F914F913F912F910F9050
:100180000FBE0F901F901895CF93DF93CDB7DEB7BA
:1001900021970FB6F894DEBF0FBECDBFDC01FB0187
:1001A00049838C91880F8C9380819927298102C083
:1001B000959587952A95E2F7982F91708C91892BC8
:1001C0008C938C91882321F481E0FD01818305C00B
:1001D0008C918F3F11F4FD01118221960FB6F89496
:1001E000DEBF0FBECDBFDF91CF9108951F920F925A
:1001F0000FB60F9211242F933F934F935F936F93FA
:100200007F938F939F93AF93BF93EF93FF9343E0BD
:1002100063E370E084E790E0B7DF40916C00442333
:1002200029F466E370E08EE690E0AEDF80916F0027
:10023000882331F441E066E370E08BE690E0A4DFD0
:1002400080916F00882351F480916C00882331F4F1
:1002500042E063E370E081E790E096DF8091660022
:10026000813021F0809166008230E9F48091650050
:100270008823C9F48091610081508093610080914E
:1002800061008F3F81F42091640081E090E002C022
:10029000880F991F2A95E2F725B3282725BB80915F
:1002A000620080936100FF91EF91BF91AF919F91A8
:1002B0008F917F916F915F914F913F912F910F900F
:1002C0000FBE0F901F9018951F920F920FB60F92AE
:1002D00011248F939F93AF93BF9380916F008823D6
:1002E00099F08091670090916800A0916900B091A9
:1002F0006A000196A11DB11D80936700909368006C
:10030000A0936900B0936A0080916C00882399F0F3
:100310008091670090916800A0916900B0916A0097
:100320000197A109B1098093670090936800A09399
:100330006900B0936A00BF91AF919F918F910F9028
:100340000FBE0F901F90189580916600813061F06C
:1003500080916600823061F480916300882321F0EF
:1003600080916300843021F4979A85E08093620045
:10037000089597988AE080936200089580916600BE
:10038000813061F080916600823061F48091630079
:10039000882321F080916300813021F4969A85E0D2
:1003A00080936200089596988AE080936200089591
:1003B00080916600813009F057C0F8942091640064
:1003C00081E090E002C0880F991F2A95E2F7982FEC
:1003D000909585B3892385BB80916400843089F42E
:1003E000109280001092810010928200109283007F
:1003F00010926700109268001092690010926A00D3
:100400002BC080916400882389F4809167009091CB
:100410006800A0916900B0916A0080937C0090937D
:100420007D00A0937E00B0937F0016C020916400F1
:10043000213091F48091670090916800A09169004B
:10044000B0916A008093780090937900A0937A002D
:10045000B0937B00209365008091640080936300DB
:10046000FEDD8093640078940895A998A898AC98CC
:1004700081E08093660008958091640021E030E07F
:10048000A90102C0440F551F8A95E2F7942F909559
:1004900085B3892385BB81E08093630084E08093EA
:1004A00064008091630002C0220F331F8A95E2F737
:1004B00085B3822B85BB8091800090918100A091B3
:1004C0008200B09183008093840090938500A09374
:1004D0008600B093870082E08093660010926500EA
:1004E0000895CF93DF93EC01FA0199818A819817DF
:1004F00071F08981882331F06115710531F0FB01BC
:10050000099503C0452B09F0099589818A83DF91FC
:10051000CF910895CFE5D4E0DEBFCDBF84B3836132
:1005200084BB85B38C7E85BB81B3806E81BB82B377
:100530008F7182BB87B38C7F87BB88B3836088BB96
:1005400084B3837F84BB85B38C6085BB8A98929A81
:10055000A99A20ED37E080E991E00197F1F7215069
:100560003040C9F7A998A89A20ED37E080E991E0DA
:100570000197F1F721503040C9F7A898AC9A20EDC7
:1005800037E080E991E00197F1F721503040C9F759
:10059000AC9889B7816089BF83B7856083BF85B711
:1005A000826085BF8BB780648BBF78942091630095
:1005B00081E090E002C0880F991F2A95E2F725B3E9
:1005C000282B25BB4CE352E065E372E084E790E022
:1005D00088DF80916600813039F440E050E068EDBA
:1005E00071E081E790E07DDF80916500882309F06C
:1005F000A0C049EB51E064EA71E08EE690E071DF63
:1006000043ED51E06EEB71E08BE690E06ADF8091A4
:1006100066008230B9F680916F00882309F43FC0EC
:10062000F894809164008823A9F4209167003091A8
:1006300068004091690050916A0080917C0090911F
:100640007D00A0917E00B0917F00281739074A07EE
:100650005B07D4F480916400813009F03EC02091A2
:100660006700309168004091690050916A00809164
:10067000780090917900A0917A00B0917B002817C2
:1006800039074A075B074CF181E08093650089B721
:10069000846089BF8EB585608EBDF7DC1FC08091F8
:1006A0006C008823E9F0F894809164008430A9F408
:1006B00020916700309168004091690050916A0074
:1006C0008091800090918100A0918200B091830080
:1006D00082179307A407B507BCF61EBC789472CFA7
:1006E00080916400882309F06DCF80917C00909107
:1006F0007D00A0917E00B0917F000A97A109B10909
:1007000020916700309168004091690050916A0023
:10071000281739074A075B070CF454CF81E0809310
:10072000600089B7846089BF8EB585608EBDAC9846
:0A07300049CF9798969846CFFFCF67
:10073A00000A0A0104000200000000FF0000FF0096
:08074A0000FF0000FF000000A9
:00000001FF
