:1000000012C0CFC12BC02AC029C028C027C026C01B
:1000100098C154C223C022C021C020C01FC01EC02E
:100020001DC01CC01BC011241FBECFE5D4E0DEBF25
:10003000CDBF10E0A0E6B0E0EAEAF9E002C005902A
:100040000D92AE37B107D9F710E0AEE7B0E001C0CE
:100050001D92AE38B107E1F7A0D2A6C4D1CF1EBC25
:1000600010926300089580916A00843019F480E052
:1000700090E0089580916A00882319F481E090E06F
:10008000089580916A00813019F484E090E0089529
:10009000089580916A0021E030E0A90102C0440F78
:1000A000551F8A95E2F7942F909585B3892385BBD8
:1000B00080916B0080936A0080916A0002C0220FD9
:1000C000331F8A95E2F785B3822B85BBCCDF809303
:1000D0006B0080916B00843091F480918600909148
:1000E0008700A0918800B091890080938A00909346
:1000F0008B00A0938C00B0938D00959A0895809109
:100100006B00882391F48091820090918300A091EC
:100110008400B091850080938A0090938B00A09317
:100120008C00B0938D009598089580916B0081307C
:1001300089F480917E0090917F00A0918000B09121
:10014000810080938A0090938B00A0938C00B093E1
:100150008D00959A089580916D00833081F0809193
:100160006D00813061F080916D00823079F4809172
:100170006A00882321F080916A00843039F481E09C
:1001800080936700979A85E0809369000895979817
:100190008AE080936900089580916D00833081F03A
:1001A00080916D00813061F080916D00823079F432
:1001B00080916A00882321F080916A00813039F4AF
:1001C00082E080936700969A85E0809369000895A5
:1001D00096988AE080936900089580916D0081303F
:1001E00009F0AEC0F89480916B0080936A003BDF09
:1001F00080936B0020916A0081E090E002C0880F3C
:10020000991F2A95E2F7982F909585B3892385BB8E
:1002100080916A00843089F41092860010928700E1
:10022000109288001092890010926E0010926F0058
:10023000109270001092710082C080916A00882331
:10024000E1F520916E0030916F0040917000509167
:1002500071008091860090918700A0918800B091F4
:10026000890082179307A407B5074CF480916E00AC
:1002700090916F00A0917000B091710008C08091C2
:10028000860090918700A0918800B09189008093AA
:10029000820090938300A0938400B09385008091A6
:1002A000820090918300A0918400B0918500AC0100
:1002B000BD0180E090E053D342C080916A0081305C
:1002C000F1F520916E0030916F00409170005091D7
:1002D00071008091820090918300A0918400B09180
:1002E000850082179307A407B5074CF480916E0030
:1002F00090916F00A0917000B091710008C0809142
:10030000820090918300A0918400B0918500809339
:100310007E0090937F00A0938000B0938100809135
:100320007E0090917F00A0918000B0918100AC018F
:10033000BD0184E090E013D381E080936C00789459
:1003400008951F920F920FB60F9211242F933F938F
:100350004F935F936F937F938F939F93AF93BF93CD
:10036000EF93FF9380916C00882311F010926C0042
:1003700080916300882319F0109263008ADE1EBC0E
:10038000FF91EF91BF91AF919F918F917F916F916D
:100390005F914F913F912F910F900FBE0F901F9043
:1003A00018951F920F920FB60F9211242F933F931F
:1003B0004F935F936F938F939F93AF93BF9380916E
:1003C0006700813099F480916E0090916F00A09148
:1003D0007000B09171000196A11DB11D80936E0057
:1003E00090936F00A0937000B093710080916700AC
:1003F000823099F480916E0090916F00A09170000E
:10040000B09171000197A109B10980936E0090939A
:100410006F00A0937000B093710060E020916E00B7
:1004200030916F0040917000509171008091820076
:1004300090918300A0918400B0918500281739071E
:100440004A075B070CF061E06093620060E0209176
:100450006E0030916F00409170005091710080915A
:100460007E0090917F00A0918000B09181002817BC
:1004700039074A075B070CF061E06093610020E0F8
:1004800080916E0090916F00A0917000B09171000A
:10049000181619061A061B060CF021E020936000BE
:1004A000BF91AF919F918F916F915F914F913F91CC
:1004B0002F910F900FBE0F901F9018951F920F92C3
:1004C0000FB60F9211242F933F934F935F936F9327
:1004D0007F938F939F93AF93BF93EF93FF93789402
:1004E00043E063E370E08BE790E0FDD1809173001F
:1004F000882331F441E066E370E085E790E0F3D1D2
:1005000040917600442329F466E370E082E790E0AE
:10051000EAD180917600882351F48091730088237A
:1005200031F442E063E370E088E790E0DCD1809151
:100530006D00813021F080916D008230E9F480916E
:100540006C008823C9F48091680081508093680012
:10055000809168008F3F81F420916B0081E090E0F2
:1005600002C0880F991F2A95E2F725B3282725BBDB
:100570008091690080936800FF91EF91BF91AF91E6
:100580009F918F917F916F915F914F913F912F91AB
:100590000F900FBE0F901F901895CFE5D4E0DEBFEF
:1005A000CDBF84B3836184BB85B38C7E85BB81B3AF
:1005B000806E81BB82B38F7182BB87B38C7F87BB18
:1005C00088B3836088BBA59AAD9884B3837F84BBCE
:1005D00085B38C6085BB81E0809366008A98929A8F
:1005E000A99A20ED37E080E991E00197F1F72150D9
:1005F0003040C9F7A998A89A20ED37E080E991E04A
:100600000197F1F721503040C9F7A898AC9A20ED36
:1006100037E080E991E00197F1F721503040C9F7C8
:10062000AC9889B7816089BF83B7856083BF85B780
:10063000826085BF8BB780648BBFC9018BD1DC0121
:10064000CB018093820090938300A0938400B093A9
:10065000850084E090E07ED1DC01CB0180937E00B8
:1006600090937F00A0938000B093810080917E00E2
:1006700090917F00A0918000B091810080936E00E6
:1006800090936F00A0937000B09371009598789448
:1006900020916A0081E090E002C0880F991F2A959E
:1006A000E2F725B3282B25BB10E080917B008F3F1C
:1006B00029F080917B00882309F07AC09091660030
:1006C000992361F480917B008093650081E08093A1
:1006D0007B00AD98AB9A809366000CC0913051F4CA
:1006E00080917B008093640090937B00AB98AD9ADF
:1006F00010936600809164008F3F31F48091650013
:10070000882361F412E00FC0882331F480916500E2
:10071000882349F411E007C08F3F29F480916500D8
:100720008F3F09F413E080916D00811709F440C0F8
:10073000C1E0D0E0A998A898AC9891DC123031F5CE
:1007400080916A0002C0CC0FDD1F8A95E2F785B365
:100750008C2B85BB8091860090918700A0918800AA
:10076000B091890080938A0090938B00A0938C00B5
:10077000B0938D0010926C0080916A00813021F05E
:1007800080916A00882389F4959A10C0113059F439
:10079000959880916B00813049F484E080936A00E1
:1007A00010926B0003C0133009F4959810936D00FC
:1007B00080916D00813039F440E050E06DEE70E0E2
:1007C00088E790E0AED080916C00882309F088C063
:1007D00047EC50E06BEA70E085E790E0A2D048EE8D
:1007E00050E06CEC70E082E790E09BD080916D006F
:1007F0008230C1F5809176008823A9F030DC8091A9
:100800006B00882321F480916200882351F4809149
:100810006B00813009F048CF80916100882309F492
:1008200043CF979811C080917300882309F43CCF7F
:1008300016DC80916B00843009F036CF8091600027
:10084000882309F431CF969881E080936C0089B7B2
:10085000846089BF8EB584608EBD8AE08093690014
:1008600018DC22CF80916D00813009F01DCF80917E
:100870007300882309F418CF80916B008823A9F4B2
:1008800020916E0030916F00409170005091710086
:100890008091860090918700A0918800B091890096
:1008A00082179307A407B507DCF480916B008130B1
:1008B00009F0FACE20916E0030916F0040917000E7
:1008C000509171008091820090918300A0918400EA
:1008D000B091850082179307A407B5070CF4E4CE06
:1008E00097989698E1CEDC01FB018C91880F8C9350
:1008F0008081992702C0959587954A95E2F7982FB0
:1009000091708C91892B8C938C91882321F481E0B8
:10091000FD01818308958C918F3F11F4FD011182B7
:100920000895CF93DF93EC01FA0199818A8198179A
:1009300071F08981882331F06115710531F0FB0177
:10094000099503C0452B09F0099589818A83DF91B8
:10095000CF910895A6E1B0E044E050E00AC0242F12
:1009600017D0252F15D000C012D0272F11C0DC01C1
:10097000CB01FC01E199FECF06C0FFBBEEBBE09AC4
:1009800031960DB20D9241505040B8F70895262F80
:10099000E199FECF9FBB8EBB2DBB0FB6F894E29AB8
:0A09A000E19A0FBE01960895FFCF03
:1009AA00000000000E0E00000A0A01040000000008
:0E09BA000000FF0000FF0000FF0000FF000033
:00000001FF
