:1000000012C0A9C12BC02AC029C028C027C026C041
:1000100072C1E1C123C022C021C020C01FC01EC0C8
:100020001DC01CC01BC011241FBECFE5D4E0DEBF25
:10003000CDBF10E0A0E6B0E0E4E8F9E002C0059032
:100040000D92AC37B107D9F710E0ACE7B0E001C0D2
:100050001D92AC38B107E1F72CD293C4D1CF1EBCAE
:1000600010926000089580916700843019F480E058
:1000700090E0089580916700882319F481E090E072
:10008000089580916700813019F484E090E008952C
:1000900008958091670021E030E0A90102C0440F7B
:1000A000551F8A95E2F7942F909585B3892385BBD8
:1000B00080916800809367008091670002C0220FE2
:1000C000331F8A95E2F785B3822B85BBCCDF809303
:1000D000680080916800843091F480918400909150
:1000E0008500A0918600B09187008093880090934E
:1000F0008900A0938A00B0938B00959A089580910F
:100100006800882391F48091800090918100A091F3
:100110008200B09183008093880090938900A0931F
:100120008A00B0938B009598089580916800813083
:1001300089F480917C0090917D00A0917E00B09127
:100140007F008093880090938900A0938A00B093E9
:100150008B00959A089580916A00833081F0809198
:100160006A00813061F080916A00823079F4809178
:100170006700882321F080916700843039F481E0A2
:1001800080936400979A85E080936600089597981D
:100190008AE080936600089580916A00833081F040
:1001A00080916A00813061F080916A00823079F438
:1001B00080916700882321F080916700813039F4B5
:1001C00082E080936400969A85E0809366000895AB
:1001D00096988AE080936600089580916A00813045
:1001E00009F088C0F89480916800809367003BDF35
:1001F000809368002091670081E090E002C0880F42
:10020000991F2A95E2F7982F909585B3892385BB8E
:1002100080916700843089F41092840010928500E8
:10022000109286001092870010926B0010926C0062
:1002300010926D0010926E005CC080916700882360
:1002400049F580916B0090916C00A0916D00B09188
:100250006E004091840050918500609186007091FD
:100260008700481759076A077B0744F440916B00E1
:1002700050916C0060916D0070916E004093800011
:1002800050938100609382007093830080E090E03F
:1002900053D32FC080916700813059F580916B0056
:1002A00090916C00A0916D00B0916E004091800023
:1002B0005091810060918200709183004817590726
:1002C0006A077B0744F440916B0050916C00609189
:1002D0006D0070916E0040937C0050937D006093A0
:1002E0007E0070937F0084E090E026D381E08093CD
:1002F0006900789408951F920F920FB60F921124FF
:100300002F933F934F935F936F937F938F939F931D
:10031000AF93BF93EF93FF9380916900882311F00F
:100320001092690080916000882319F0109260009B
:10033000B0DE1EBCFF91EF91BF91AF919F918F9165
:100340007F916F915F914F913F912F910F900FBED1
:100350000F901F9018951F920F920FB60F921124B5
:100360008F939F93AF93BF9380916400813099F4F2
:1003700080916B0090916C00A0916D00B0916E0027
:100380000196A11DB11D80936B0090936C00A0930A
:100390006D00B0936E0080916400823099F480917A
:1003A0006B0090916C00A0916D00B0916E00019770
:1003B000A109B10980936B0090936C00A0936D002C
:1003C000B0936E00BF91AF919F918F910F900FBE30
:1003D0000F901F9018951F920F920FB60F92112435
:1003E0002F933F934F935F936F937F938F939F933D
:1003F000AF93BF93EF93FF9343E063E370E088E72D
:1004000090E05ED240917000442329F466E370E0EE
:1004100082E790E055D280917300882331F441E067
:1004200066E370E08FE690E04BD280917300882302
:1004300051F480917000882331F442E063E370E06E
:1004400085E790E03DD280916A00813021F0809173
:100450006A008230E9F4809169008823C9F48091B0
:100460006500815080936500809165008F3F81F425
:100470002091680081E090E002C0880F991F2A95C2
:10048000E2F725B3282725BB80916600809365009D
:10049000FF91EF91BF91AF919F918F917F916F915C
:1004A0005F914F913F912F910F900FBE0F901F9032
:1004B0001895CFE5D4E0DEBFCDBF84B3836184BBA4
:1004C00085B38C7E85BB81B3806E81BB82B38F7117
:1004D00082BB87B38C7F87BB88B3836088BBA59AB8
:1004E000AD9884B3837F84BB85B38C6085BB81E08A
:1004F000809363008A98929AA99A20ED37E080E968
:1005000091E00197F1F721503040C9F7A998A89AD6
:1005100020ED37E080E991E00197F1F7215030407C
:10052000C9F7A898AC9A20ED37E080E991E00197EF
:10053000F1F721503040C9F7AC9889B7816089BF85
:1005400083B7856083BF85B7826085BF8BB78064C2
:100550008BBFC901ECD1DC01CB018093800090936B
:100560008100A0938200B093830084E090E0DFD10B
:10057000DC01CB0180937C0090937D00A0937E00F2
:10058000B0937F0080936B0090936C00A0936D00FC
:10059000B0936E00959878942091670081E090E088
:1005A00002C0880F991F2A95E2F725B3282B25BB97
:1005B00010E0809178008F3F29F0809178008823A7
:1005C00009F07AC090916300992361F480917800DA
:1005D0008093620081E080937800AD98AB9A80931D
:1005E00063000CC0913051F48091780080936100D9
:1005F00090937800AB98AD9A10936300809161005E
:100600008F3F31F480916200882361F412E00FC0C3
:10061000882331F480916200882349F411E007C0F7
:100620008F3F29F4809162008F3F09F413E080919D
:100630006A00811709F440C0C1E0D0E0A998A898E9
:10064000AC980DDD123031F58091670002C0CC0FFF
:10065000DD1F8A95E2F785B38C2B85BB80918400E2
:1006600090918500A0918600B091870080938800CA
:1006700090938900A0938A00B0938B001092690038
:1006800080916700813021F080916700882389F490
:10069000959A10C0113059F4959880916800813076
:1006A00049F484E0809367001092680003C013301F
:1006B00009F4959810936A0080916A00813039F4AA
:1006C00040E050E06DEE70E085E790E017D180915A
:1006D0006900882309F0F1C047EC50E06BEA70E054
:1006E00082E790E00BD148EE50E06CEC70E08FE6D2
:1006F00090E004D180916A00823009F0A0C080911E
:100700007300882309F443C0F894A9DC8091680041
:100710008823A9F420916B0030916C0040916D000A
:1007200050916E008091800090918100A091820094
:10073000B0918300281739074A075B07D4F48091EA
:100740006800813009F050C020916B0030916C003E
:1007500040916D0050916E0080917C0090917D00E1
:10076000A0917E00B0917F00281739074A075B07E8
:10077000DCF181E08093690089B7846089BF8EB520
:1007800084608EBD8AE08093660097982CC080912B
:100790007000882359F1F89462DC809168008430FD
:1007A00019F520916B0030916C0040916D005091D3
:1007B0006E008091840090918500A0918600B09198
:1007C000870082179307A407B50774F081E0809330
:1007D000690089B7846089BF8EB584608EBD8AE068
:1007E00080936600969855DC7894E2CE80916800FC
:1007F000882309F0DDCE8091800090918100A09146
:100800008200B09183000A97A109B10920916B0081
:1008100030916C0040916D0050916E00281739079F
:100820004A075B070CF4C4CE81E08093600089B76F
:10083000846089BF8EB585608EBDAC98B9CE80913D
:100840006A00813009F0B4CE80917000882309F4E9
:10085000AFCE809168008823A9F420916B0030917D
:100860006C0040916D0050916E00809184009091D9
:100870008500A0918600B091870082179307A40796
:10088000B507DCF480916800813009F091CE2091A9
:100890006B0030916C0040916D0050916E00809122
:1008A000800090918100A0918200B0918300821716
:1008B0009307A407B5070CF47BCE9798969878CE4B
:1008C000DC01FB018C91880F8C938081992702C0F9
:1008D000959587954A95E2F7982F91708C91892B81
:1008E0008C938C91882321F481E0FD01818308950C
:1008F0008C918F3F11F4FD0111820895CF93DF9306
:10090000EC01FA0199818A81981771F08981882315
:1009100031F06115710531F0FB01099503C0452BDC
:1009200009F0099589818A83DF91CF910895A6E125
:10093000B0E044E050E00AC0242F17D0252F15D096
:1009400000C012D0272F11C0DC01CB01FC01E199BE
:10095000FECF06C0FFBBEEBBE09A31960DB20D9202
:1009600041505040B8F70895262FE199FECF9FBB24
:100970008EBB2DBB0FB6F894E29AE19A0FBE01969A
:040980000895FFCF08
:10098400000E0E00000A0A0104000000000000FF2F
:0C0994000000FF0000FF0000FF0000005A
:00000001FF
